:020000041004E6
:10000000006000207907041095440410A9440410EE
:10001000AA5555AA45554C420000000000000000BA
:10002000000000000000000000000000BD440410BB
:10003000000000000000000009070410BF44041085
:100040000B0704100D0704100F070410110704100C
:100050000000000000000000000000001307041072
:10006000C7440410150704101707041019070410DB
:100070001B070410554104101D070410D14404103F
:100080001F070410CF440410F94404102107041082
:10009000E34404102307041025070410DB44041074
:1000A000D34404101945041027070410290704102D
:1000B0000000000000000000000000000000000040
:1000C00010B5904216D98AB2030C090C0C4659435C
:1000D00080B25343444350431B191A041B0C10189D
:1000E000594180225203002312184B41520DD8026D
:1000F000104310BD4843802252031218520D10467F
:1001000010BDC046EFF31482EFF30981154880F368
:100110001488BFF36F8FF0B543464C4655465E4694
:100120006746F8B4104CEFF30883636006B4BFF37E
:100130004F8F30BFC046C0460B4C646884F30888BC
:1001400082B003BCF8BC9846A146AA46B346BC465A
:10015000F0BC04BC80F3098881F31488BFF36F8F6F
:100160001047C04600000000040000208B0707D0A5
:10017000013A22D30B780131037001308B07F7D19C
:10018000830730D0DB4219D00138043A08D308C9BC
:1001900043701B0A43801B0C03710430043AF6D2EF
:1001A000D20707D30B88437001D08A78C2701B0A2C
:1001B0008370704701D00B7843707047043A06D3C0
:1001C00008C903801B0C43800430043AF8D2D207DC
:1001D00005D30B88038005D08B788370704701D0DE
:1001E0000B780370704770B4103A03D378C978C0A5
:1001F000103AFBD2530701D318C918C001D508C95A
:1002000008C0D20704D30B88038002300231002AD1
:1002100001D50B78037070BC7047C04602B47146BC
:1002200049084900095C49008E4402BC7047C04639
:1002300003B47146490840004900095E49008E44F4
:1002400003BC7047002243088B4274D303098B42DE
:100250005FD3030A8B4244D3030B8B4228D3030C96
:100260008B420DD3FF22090212BA030C8B4202D338
:100270001212090265D0030B8B4219D300E0090A60
:10028000C30B8B4201D3CB03C01A5241830B8B4269
:1002900001D38B03C01A5241430B8B4201D34B0352
:1002A000C01A5241030B8B4201D30B03C01A5241B7
:1002B000C30A8B4201D3CB02C01A5241830A8B423C
:1002C00001D38B02C01A5241430A8B4201D34B0225
:1002D000C01A5241030A8B4201D30B02C01A524189
:1002E000CDD2C3098B4201D3CB01C01A524183093D
:1002F0008B4201D38B01C01A524143098B4201D377
:100300004B01C01A524103098B4201D30B01C01AA1
:100310005241C3088B4201D3CB00C01A524183081B
:100320008B4201D38B00C01A524143088B4201D348
:100330004B00C01A5241411A00D2014652411046A8
:100340007047FFE701B5002000F006F802BDC04687
:100350000029F7D076E770477047C0469140031CEC
:1003600090409C46203A9340194352426346D34002
:1003700019437047437802781B021A438378C07888
:100380001B041343000618437047C046030A4B7012
:1003900003021B0E8B70030E0870CB707047C046B3
:1003A00003005A7800781202024398781979000401
:1003B0000243D878000610435A7912020A43997909
:1003C00009040A43D979090611437047030A537097
:1003D000030C9370030ED3700B0A53710B021B0EA8
:1003E00093710B0E10701171D371704701000A4A9E
:1003F0000A4810B51368046800209C4209D00848D8
:10040000C05C013308708021C9008B4202D00120FA
:10041000136010BD0023FAE7240800202008002004
:1004200020040020F0B504244C4B0C25196D85B038
:100430002143196590211A6DC90522400392039A40
:100440000A682419AA4322430A608A68A446AA4378
:1004500022438A6002224C6894434C60404C666A96
:1004600096436662266A16432662F0260F6AB743F1
:10047000D03E374366460F62196D31431965196DD9
:100480003140029102993749053E0F68B74317433F
:100490000F608F68B74317438F6001274E68BE43D4
:1004A0004E60E66ABE43E662A66A3E43A6620F2637
:1004B0000C6AB4430C628024996DE4002143996571
:1004C0008B219B6D23400193019B274B274CD960C7
:1004D0001968214019605968254C214059601968F4
:1004E000244CA9430D431D60996821409960996887
:1004F000214C214099609968C900C9089960802100
:100500001C6889052143196059681C4C21402A2424
:1005100059609968A143996019680F431F600028CA
:1005200019D0C224164911360860FF201968A400AA
:100530000E431E60134B19598143080040210143AB
:1005400019518021490019600F4B186800238068F9
:10055000190004F0DBFA05B0F0BDC04600004048C9
:10056000000050480000104800400041FFE9FFEF44
:10057000FFCFFFFFFFFCFFFFFFFFFFF1FFB7FFFF14
:100580001C04002000E100E0600F0020802210B574
:10059000054B4118884200D110BDDC691442FCD0E3
:1005A000047801309C62F5E700400041074B07B535
:1005B0001B68002B09D0064AD169890605D5694612
:1005C000526AC81D02700121984707BD1C04002013
:1005D0000040004107B50121019001A8FFF7D6FFB7
:1005E00001980EBD01204042704780239B010020EE
:1005F0004B607047012070470020704770B50E00B7
:1006000014000025A54201DB200070BD70190121F6
:10061000FFF7BCFF0135F5E770B50E0015000024AB
:10062000AC4208D23019FFF7E1FE002801D10134B5
:10063000F6E7002CF4D0200070BD0000034B5A6A8E
:1006400082435A621A6A1043186270470000504889
:10065000034B1A6A82431A625A6A104358627047FF
:1006600000005048034BDA6A8243DA629A6A104308
:100670009862704700005048034B9A6A82439A621E
:10068000DA6A1043D86270470000504810B5012064
:10069000FFF7D4FF0220FFF7D1FF0420FFF7D8FFB8
:1006A0000820FFF7CBFF80204000FFF7D1FF80201C
:1006B0008000FFF7CDFF8020C000FFF7C9FF80203A
:1006C0000001FFF7C5FF0120FFF7D6FF0220FFF76B
:1006D000C9FF0420FFF7C6FF0820FFF7CDFF102059
:1006E000FFF7C0FF2020FFF7C7FF4020FFF7C4FF40
:1006F0008020FFF7B7FF8020C001FFF7BDFF8020FB
:100700000002FFF7AFFF10BD70477047704770479A
:100710007047704770477047704770477047704721
:100720007047704770477047704700000D4B10B519
:100730001B68002B14D10C4B1A69002A02D19B6B49
:10074000002B0DD00122094B9A60FFF7F5FCBFF397
:100750004F8F074B074ADA60BFF34F8FC046FDE764
:10076000012010BD940040480000504804000020C3
:1007700000ED00E00400FA0510B5FFF7D7FF0128EF
:100780000ED10E4A0E4B0F498B420FD300210E4B58
:100790000E4A93420DD300210D4B0E4A93420AD3C9
:1007A0000D4B83F3088803F0FFFD10BD01CA01C3A0
:1007B000EAE702C3EDE702C3F0E7C046185E0510A2
:1007C000E00D0020C40F0020C0000020BC0300206A
:1007D000BC030020E00D0020006000200A4A030056
:1007E000116810B5002901D1084911601068084945
:1007F000C3188B4206D904F0BBF80C230360012018
:10080000404210BD1360FCE728080020D4250020DA
:10081000D4270020C020F0B5FF27C021C0244B4BB7
:1008200080001A584A4EBA430A431A501A582402F2
:1008300032402243C0241A501A58464D24042A40FC
:1008400022431A501A581202120A1100C02212062C
:1008500011431950C121890058580002000A104361
:100860005850C220C02280001958B9431143C022F9
:1008700019501958120231401143C0221950195809
:10088000120629402143195019580902090A114337
:10089000C022195004301958B9431143C0221950CD
:1008A0001958120231401143C0221950195812062A
:1008B0002940214319501958C0240902090A11433B
:1008C000C0221950043019582402B9431143C022E0
:1008D000195019581206314021431950195829400E
:1008E000195019580902090A1143C022195004303D
:1008F0001958B9430A43C0211A501C580902344000
:100900000C43C0211C501C5809042C400A000C4305
:1009100080211C501C58C9052402240A0C43C02104
:100920001C5004301C580902BC431C501C58264063
:100930003143195019580D401543C0221D50195804
:1009400012060902090A0A431A50F0BD00E100E04C
:10095000FF00FFFFFFFF00FF024B18688003C00F7E
:100960007047C04600004048024B18688006C00F20
:100970007047C04600004048024B18684004C00F52
:100980007047C04600004048E021034A93688B430B
:10099000034393607047C04600004048024B5869CB
:1009A0004007C00F7047C04600005048024B18680F
:1009B000C003C00F7047C04610E000E070B50E00E5
:1009C000FA210F4B0400890018681500FFF73AFC64
:1009D000013844430B4B00225C601C009A600532D6
:1009E0001A60B047A84205D1012001222368934331
:1009F000236070BDFFF7DAFF0028F2D00020F4E793
:100A00002C0E002010E000E0F0B585B0002815D0D5
:100A10002020FFF7B9FF0421704B1A6E8A431A6633
:100A20000122196C11431964196C91431964196EF0
:100A3000114319661B6E1A400392039B684B1A6898
:100A4000684B9A4200D0C1E00F220726664B1D6812
:100A5000196818682D0A090B000C1C681140154014
:100A600010401A68240D120E0191344032409E2726
:100A70000F265E4BBF00D959D200B1430843D8516D
:100A80009D20F02180001F588F43019909013943AF
:100A900019501958B1430D431D5092250720AD0040
:100AA000595981430C435C515959313081430A43B0
:100AB000B0215A513F220A2489005D5895432C43A6
:100AC00040255C505C582C435C50042404315E5833
:100AD000964334435C5080245E5834435C505C58E9
:100AE000AC435C50BA24BB25A4001959AD00914316
:100AF000195110215C599443214359512021043547
:100B00005C59944321435951302104355C59944335
:100B10002143BE245951A400195991430843392156
:100B20001851043418599043014319513A2104349F
:100B300018599043014319513B21043418599043EB
:100B4000014319513C210434185990430143C320F7
:100B500019518000195855249143023A0A431A50FA
:100B6000FF222349C86C90432043C86466208D6DE2
:100B7000954328438865C425C86E6D00904304439F
:100B80001D20CC665C599443204358515920043DA4
:100B90005C59944320435851322008355C599443A2
:100BA0002043585101200C6F2043D02408671F2197
:100BB000A400185990430143D120195180001958BD
:100BC0009143F63A0A431A5005B0F0BD03220820BB
:100BD000072314000500019349E7C0460000404880
:100BE000F81E0010CCECBCFCE81E001000140060E5
:100BF000FC140060802337B53F4C5B02226805007F
:100C00001343642001223D492360FFF7D7FE0028EB
:100C100000D16FE0002D44D0681E062840D8384D22
:100C2000FFF7FCFA0420252A2F34390030223549F9
:100C300000204B6893431A00102313434B60FFF7C7
:100C4000A3FE314B2B60802322689B01134323605A
:100C50000122C8202D49FFF7B1FE0523002843D10A
:100C600018003EBD2020FFF78FFE294BEAE7402009
:100C7000FFF78AFE274BE5E76020FFF785FE264B4E
:100C8000E0E78020FFF780FE244BDBE7A020FFF7A2
:100C90007BFE234BD6E7C020FFF776FE214BD1E742
:100CA000FEE72020FFF770FE80239B0222681A4295
:100CB000FCD00223A2681343A36000230193019B8D
:100CC000052B0DDD0423A2681343A360104A0C4BCF
:100CD0001A6030210B4A53688B4353600023BFE7EF
:100CE000C046019B0133E9E7074A29680023914286
:100CF000B6D0EEE70423B3E70000404859090410DA
:100D00002C0E0020001000400090D0037909041040
:100D10000048E8010024F40000127A0000093D00B8
:100D200080841E0040420F0003000020FF2B0DD0E6
:100D30000A1F0130032A09D9032908D1002B05D045
:100D40000421064A136E0B43002013667047012BE3
:100D5000F6D00421014A136E8B43F5E700004048AA
:100D6000F7B520266C4B6D4A0090019193606C4A58
:100D70006C4C136163686C4D33436360636801229C
:100D80002B406360C8206949FFF718FEAC46033565
:100D90002300FF35002800D1B5E03021E2698A4305
:100DA00080211643E661624C4901A2680A43A260B1
:100DB000604A1168604A914200D0A6E05F490E3552
:100DC00008680F680A6809687F06120B89022840C4
:100DD0007F0F2A40890EE668594D090635400D43BC
:100DE0008021E560E568090429431E25E160E1688A
:100DF0005200A94311430122E160E16880010A43E6
:100E0000E260504A50491568FF02294001431160D1
:100E10002021106880250143116011684B486D0046
:100E200001400F43802117601068C9000143116021
:100E30006146DA69F0200A4080211543DD61C90569
:100E40000A6809680240E13801400A43102A02D1C9
:100E5000DA698243DA61996A3D4810260140996255
:100E6000DA6A3C4F0240DA62A3683B4A96201A4095
:100E700080231B0213436022A360E36839001343FD
:100E8000E36023685C3A9343236023680022B34302
:100E900023604000FFF792FD4542454196202368BC
:100EA00001221E433900266040006D00FFF786FDD9
:100EB00000282FD0002D26D1019BFF2B02D001202E
:100EC000FFF7A2FD254B26491A68009811408022A1
:100ED00092010A431A60802219680A4370211A603D
:100EE0001A688A43110030220A431A60FFF782FE13
:100EF000051E08D100990198FFF716FF051E02D1C3
:100F0000FFF788FC62B62800FEBD1F2108220327D8
:100F10000A2060E70225F6E70000041000ED00E07B
:100F20000400002000005048FFFEFFFF9D09041050
:100F300000004048F81E0010CCECBCFCE41E001081
:100F4000FFFFFFC0940050483FFCFFFFFFC7FFFFBB
:100F5000FFCFFFFF69090410FF7FFEFF98004048A4
:100F6000FFC0FFFF0023F7B50400019000910B7054
:100F7000002C17D0237B002B1FD0EFF3108572B607
:100F80002668676800F038FD361A8F413200002F5E
:100F900002DC0ED1002E0CD00121100000F07EFDED
:100FA00085F31088009B1B78002B00D0019C20004B
:100FB000FEBD0123009A1370F2E72469D8E7000010
:100FC000F0B585B002A9CD1D002101242970019240
:100FD000067B2100002E1BD10473194C0260A2680D
:100FE000436011000092002907D04A689A4212D348
:100FF00003D10A68019FBA420DD30161002E0DD1C1
:101000002900FFF7AFFF2B78A060002B0BD12978C8
:10101000080005B0F0BD0E000969E4E7009B3061EF
:101020008342F4D1ECE7EFF3108172B6237D607D4B
:101030005A1C824200D0D3B2237581F31088E6E7B0
:101040002C08002010B500F06BFC0122014B1A7136
:1010500010BDC0462C0800200023F0B52F4987B0F2
:101060000A682F4905900868496812184B41029296
:101070000393EFF3108472B600F0BEFCC822002385
:101080009202009001910298039912184B41254D4C
:101090002E686F68BB4212D801D1B2420FD80298B5
:1010A0000399B92200235200801859410B0001997D
:1010B0000200994203D823D10099914220D94C20B3
:1010C0004042C1170A2280197941002302900391FE
:1010D00000980199801859410B0003990200994228
:1010E00003D810D1029991420DD930002A7A297B78
:1010F00000F0F6FC059B187001236B72FF336B81C7
:1011000084F3108807E00022064B9A7284F310885B
:101110000123059A137007B0F0BDC0462C080020CB
:101120004808002078080020F8B5002600F0A2FC4E
:101130000F4B5E725E81EFF3108772B61C685D68BC
:1011400000F05AFC241A8D4100F0A2FC330002008A
:10115000A41A9D4187F31088B54205DC06D1B4423C
:1011600004D002200E2C00D90020F8BD0120FCE79D
:1011700078080020704700000A4B13B51A6B0A4923
:101180000A401A63094A117D547D481CA04200D0D0
:10119000C1B211750122D96C0A43DA64DB6C019388
:1011A00013BDC04600180060FFFFFFBF2C080020E1
:1011B0000022014BDA727047780800207047000067
:1011C00070B5FFF7FDFE064D04002B7B002B04D10C
:1011D00000F0A6FB01232B712B73E0B270BDC0465B
:1011E0002C080020F7B5140000226B461500DA71B8
:1011F0000E4B19730E491C720E684F68841BA4199C
:101200007D411C605D6001255A725D816B46D81D71
:10121000FFF722FF074C237B002B03D100F080FB5C
:10122000257125736B46D879FEBDC046780800202D
:10123000480800202C08002037B5154C0200A36890
:1012400000251900002905D008698A421DD1934262
:1012500001D02861180000216D461173E9718342A5
:1012600012D0E91DFFF77EFEEB79A060002B0BD0BA
:10127000EFF3108172B6237D607D5A1C824200D04C
:10128000D3B2237581F3108837BD0D000100D9E773
:101290002C08002010B500F0AFFB10BDF7B505001D
:1012A00000F09CFC8022274B52031A60AB7801A807
:1012B00083706B6800265A1E9341C3702B8803808D
:1012C00000F0BCFA204800F0B7FB01231F4C6A680D
:1012D00023731300591E8B4100200021A3751C4B62
:1012E000A6605E725E81186059602B8815030A2122
:1012F0002800E6752361A682FEF7A4FF2671070089
:1013000020601448092D02D800F082FC04E000F0AF
:101310007FFC874213D2206800260F4D0F4B6E6171
:10132000AB60206000F068FB3300226812184B416C
:101330002800FFF745FE206800F090FBF7BD054848
:10134000E2E7C04600E100E0480800202C08002049
:1013500078080020FFEFFFFF600800204510041010
:101360000023F0B589B006AAD371EFF3108672B6E8
:10137000594C637A002B0AD06568276800F03CFB63
:10138000A94202D803D1B84201D90023637286F37F
:101390001088524D2B7D03936B7D0493049A039B1D
:1013A00093422AD12B79002B00D17BE000F0CAFABE
:1013B000002820D1AB7D2871002B00D06CE0EA7DA5
:1013C000002A00D168E0EB75002306AAD371424BD6
:1013D0009B7A002B02D0D01DFFF73EFE404C200030
:1013E000FFF72AFF00F008FB00232A6812184B4180
:1013F0002000FFF7E5FD09B0F0BDAB681C000193CC
:10140000002302930593002C13D0237B002B05D1DE
:10141000029B0594013324690293F4E72668676808
:1014200000F0EAFA361A8F41002F02DCF0D1052EC7
:10143000EED90020029B834203D0059B18610198DE
:101440000194264C019BA36000281CD106ABD91D3A
:10145000A868FFF787FD06ABDB79A860012B0BD1ED
:10146000EFF3108172B62B7D687D5A1C824200D04A
:10147000D3B2237581F310886B7D039AD318049A35
:101480009B1A6B7585E70023037383680669002B3D
:1014900000D098473000D7E700F05CFA114800F020
:1014A000CBFA91E70F4C237C002BA4D0FA2600271F
:1014B000760300F0A1FA2268636892197B41994291
:1014C00004D800D097E7904200D894E700F028FABB
:1014D00001232B718FE7C046780800202C080020DC
:1014E00060080020480800200F238908036189B2A2
:1014F0002433816102640360323B02691A42FCD0EA
:10150000704770B5FF290FD00F2411250126D3187D
:10151000934211D95106090C04618161056001698A
:101520003142FCD00132F3E70F2303611333036030
:10153000213B02691A42FCD070BD0000014B8000C3
:10154000C150704700043048094B800030B5C018C6
:101550000C000023002C06DCCB43DB1719400023D2
:1015600089000B5030BDD558013CC5500433F1E71C
:1015700000043048064B8000C018002310B5002935
:1015800000DC10BDC4580139D4500433F7E7C0461D
:1015900000043048014B8000C058704700043048B8
:1015A000144B10B599681A00890702D59B685B0730
:1015B0001DD49368E02208211340602B09D00CD879
:1015C0000639202B05D00231402B02D0002B00D150
:1015D00003390948FEF736FE10BD2021A02BF8D0B4
:1015E0004918C02BF5D0802BF3D13039F1E70348EF
:1015F000F2E7C046000040480090D0030048E801F0
:1016000010B50400FFF7CCFF206010BD30B51449C1
:101610008B688A685B0352035B0B520B9A42F7D1CB
:10162000002BF5D00F4CDAB262431D126C4312123C
:1016300012191032521142628361CB68CA685B0191
:1016400052015B0952099A42F7D1002BF5D0064AA4
:1016500099114A43803212120262C36130BDC04602
:1016600000100060F6BC0800530700000200DB23F6
:101670006820534350431B0C000AC01870470000F9
:1016800010B5084AFEF71CFD102800DA1020802350
:101690005B01984200DB0448044B00119882044B24
:1016A000986010BD26030000FF0F0000880800208E
:1016B0000018006010B5FFF7D9FF034B034A196A01
:1016C000FEF7FEFC10BDC04688080020260300007F
:1016D00070B5184E016A184A04001B20B57BFEF74E
:1016E000EFFCC0B27071B079EDB2C0B2FFF7E2FFAB
:1016F000230049331870307AED1001354019FFF797
:10170000D9FF230041331870707A4019FFF7D2FFD8
:10171000230042331870B07AC0B2FFF7CBFF23002A
:1017200043331870F07A4434C0B2FFF7C3FF20701F
:1017300070BDC046C000002026030000F7B51B4B5B
:101740001B4C1D69A66AA268E36800920193236B93
:101750003100184AE81AFEF7B3FC00230200009893
:10176000019912184B4122606360230040331F78B7
:10177000002F12D1236B626BEB1A93420DD2012022
:1017800031000C4A4042FEF79BFC3B0002002068FF
:10179000616812184B412260636022686368A2602E
:1017A000E360636AE5622563A362F7BD0018006029
:1017B0008808002035060000F8B5EFF3108772B6F0
:1017C000134B144E1B69346875680360F26A716AC2
:1017D000981A114AFEF774FC00230200A4185D4118
:1017E000F36BAB4203D80CD1B36BA34209D90120F0
:1017F000094A716A4042FEF763FC00230200A41804
:101800005D41B463F56387F3108829002000F8BDBB
:101810000018006088080020350600000122064BF1
:1018200010B51969114319610021996019691142B4
:10183000FCD0FFF7EBFE10BD00100060F8B5038888
:10184000304C314D2361AE7B4388F60807000136EA
:10185000002B4CD001222D4B19691142FCD01722CC
:10186000596820000A435A60FFF7D8FF636AA362F1
:101870002300FA7840331A702369216A98B2FFF77F
:10188000FFFE230000214A33002219700023204864
:10189000226063600069A263E363A260E3602300E7
:1018A000E0624B33206320001970FFF711FF287AA4
:1018B0008019FFF7DBFE23001B3045331870687A70
:1018C0008019FFF7D3FE23001B3046331870A87A27
:1018D000C0B2FFF7CBFE23001B3047331870E87A05
:1018E0004834C0B2FFF7C2FE1B302070F8BDC823D9
:1018F0005B03A3626362074B2362074BA361074B41
:10190000E361B5E788080020C000002000100060F7
:1019100000180060C2F528008D5B0000ECEB65014B
:10192000064B40331B78002B06D00122044B19696B
:101930000A431A6100229A607047C0468808002056
:10194000001000600120024B1B6998437047C0469D
:101950000010006030B5274C97B0230040331B784F
:10196000002B3ED05022210002A803F015F802A857
:10197000FFF74CFE069B0A9901936B469888FFF788
:101980007FFE02A8FFF7A4FEEFF3108572B62300D6
:1019900001224B331A70089B4121A361099B02A8C5
:1019A000E3610A9B091823620B9B019363620C9B02
:1019B000A36213AB1A78230009784133197003A985
:1019C000C98F231DD987230044331A7049231B185C
:1019D0001B7849342370FFF7B1FE85F3108817B0E8
:1019E00030BDEFF3108472B6FFF7A8FE84F31088C1
:1019F000F5E7C0468808002007B501A8FFF7DCFE20
:101A000003B000BD73B5060001A8FFF7D5FE019B2A
:101A10000400981B064B0D00064A596AFEF750FB5E
:101A20002900020000232000801A99417CBDC04695
:101A30008808002035060000074B1A004032127853
:101A40000274DA69C2609968DA68016042609A6972
:101A50001B6B8260436170478808002010B5034CFF
:101A6000034A216AFEF72CFB606310BD8808002042
:101A700026030000C0230022DB05DA60024A034986
:101A8000936A0B409362704700180060FFFFFFBF2E
:101A9000014B4A3318787047880800200D4B0E4AD6
:101AA000196A10B5FEF70CFB0C4B02001869202ACE
:101AB00000D22022010008315218DA628022996A8D
:101AC00092050A439A628022196BD2050A431A636F
:101AD00010BDC046880800202603000000180060E2
:101AE000F7B5304C0700230045331E782300012949
:101AF00035D1002A31D0413301A81D78FFF75CFEB3
:101B00002369294AC8339B19216A284E381A83420F
:101B10002BD2FEF7D5FA2649019A4B795B19C31AE5
:101B200007209A187262B26A8243B262C022002011
:101B3000D205D060B06A0243B262487945195B1998
:101B40006A1D934224D2C02300220120DB05DA6003
:101B5000B36A184A1340B362FEBD4233CCE7002A91
:101B600001D04333C8E74433C6E7FEF7A9FA2300A0
:101B7000C02149331B78019A5D19431BC9059A1886
:101B80000A610222CA60B26A0A490A40B262D6E712
:101B9000616A2800084AFEF793FA4A342070002050
:101BA000DAE7C0468808002026030000001800601D
:101BB000C0000020FFFFFFBF35060000EFF31081DB
:101BC00072B6C022044BD2051B6902331361022393
:101BD000D36081F310887047001800600122064B23
:101BE000D96C1143D964996C0A439A648022034BDF
:101BF00012041A607047C0460018006000E100E05F
:101C0000C02310B5DB055869FFF7FCFE10BD0000CE
:101C100010B5034B034A596AFEF752FA10BDC0468D
:101C2000880800203506000001220A4B82B0196E98
:101C300011420CD1196C11431964196C9143196448
:101C4000196E114319661B6E1A400192019B002008
:101C500002B0704700004048F7B50126C0246D4629
:101C6000B446E4050735194E674633700E68A66220
:101C70004E68E6628E682663CE6866630668A66371
:101C80004668E66386682664C668666464262E70C5
:101C9000A66D3E43A66567462E78013EF6B22E70CD
:101CA000E66D3E4202D02E78002EF4D12E78A66C3E
:101CB0001660E66C5660266D9660666DD660034EC3
:101CC00036789E42CFD10020FEBDC046D808002005
:101CD00030B50824012906D0023C002903D0002495
:101CE000022900D106344D1E012D06D89B23012A5E
:101CF00000D05E3B001BC01A30BD002901D0032973
:101D0000F8D19923F3E70000C022D20553680349B4
:101D10000B40034908400343536070474F000200E3
:101D2000B0FFFDFFC0220821D20593690B439361E8
:101D3000704700008021024A53688B43536070470C
:101D4000C00000208023024A51680B435360704753
:101D5000C00000200268024B19681A607047C04634
:101D6000C00000208022F8B5694C1A2663681B2742
:101D70009343636080236168664ADB0111400B4333
:101D80006360FC23606864499B0308400343902020
:101D90006360636800051B021B0A03436360B4238E
:101DA000A068DB0308400343C820A360A368800544
:101DB0001B021B0A0343FF20A3605A23A568854327
:101DC0002B43A360C823A5689B0115402B43A36048
:101DD000E36801250B40802149031943E160E36872
:101DE0004E49194080235B050B430421E3602369BE
:101DF00083430B432361E3688343180014230343A5
:101E0000E360E3681340A022D2001A43E2606369F2
:101E100019438023616162691B0413437F2263615C
:101E2000A3699343A3613E483E4BFA3203823E4B83
:101E3000FF329A58C57482745D2202759D22920009
:101E40009A584275394AC282922292009A5845762F
:101E50000276122282761A00FC32D16CC1763449A5
:101E60008183916DC57781774119CE77D66E811CBC
:101E7000CE7730494184C42149005E58411DCE7758
:101E80002126811DCD77C11DCE77C22149005E5824
:101E900001000831CE7728490185C62149005E58E6
:101EA00001002A310E70010006002B312C360D7016
:101EB0003770166F02002D321670204A0600C28558
:101EC000D02292009F583036377006003136357078
:101ED0000600912732363770D126B6009E5903008E
:101EE00033331E70060000230100020034363370C5
:101EF00010320C31026042608160C360FFF72AFF3C
:101F00000F4B1D6080236269DB0513436361F8BDDD
:101F1000C0000020FF00FFFFFFFF00FFFFFFFFC02A
:101F2000DC080020015E0000001400600152000087
:101F30000115000001220000012300000190FFFFB5
:101F4000101400607F21034A084053688B43034309
:101F500053607047C0000020014B18407047C046D6
:101F600030DFC9008023DB03184070470020704732
:101F70008023DB051840704780239B04184070477E
:101F800080239B01184070478023DB021840704774
:101F900080235B021840704780239B0318407047E2
:101FA00080239B001840704780231B011840704716
:101FB000C00FC00770478023DB04184070474023E0
:101FC0001840704780235B0418407047082243681C
:101FD0009343436070478022436893434360704754
:101FE000012243689343436070478068704710B58F
:101FF0001022002100F092FD10BD202243681343FF
:1020000043607047102243681343436070470822BF
:10201000436813434360704783688160704780233F
:1020200042681343436070478023C268DB05134353
:10203000C36070478023C2689B041343C36070472A
:102040008023C2681B061343C36070478023C268A5
:10205000DB041343C36070478022C36852041343F8
:10206000C3607047042243681343436070470368AA
:10207000016070474368024A134043607047C0469E
:10208000FFFEFFFF70478022436852001343436006
:1020900070474023426813434360704701224368FE
:1020A00013434360704780224368920013434360A8
:1020B0007047C36809031B0D090B1B050B43C36065
:1020C00070478023C2685B031343C360704780225C
:1020D000C36812041343C36070478022C368D203ED
:1020E0001343C360704780224368D20013438022A9
:1020F000436043689200134343607047044A0548B5
:1021000009021369014004480340194311617047F3
:10211000C000002000FFFF0FFF0000F05C235843C9
:10212000054B064AC018036813400360036A044A5B
:10213000134003627047C046DC000020FFFFDFFF52
:10214000FFFFFFDF5C235843064BC0188023026863
:102150009B03134303608023026A9B0513430362BE
:102160007047C046DC0000205C234343014A9B18B3
:10217000586A7047DC0000205C235843094BC018A4
:10218000C36A1B0C0B70C36A1B0E4B70036B8B7006
:10219000036B9B029B0CCB70036B9B029B0E0B7122
:1021A0007047C046DC0000205C235843014BC01838
:1021B0007047C046140100205C235843014BC018EF
:1021C0007047C0461C0100205C234343024A9B1811
:1021D000D86A8004800E7047DC0000205C234343F3
:1021E000024A9B1818680006C00F7047DC000020E8
:1021F0005C234343024A9B1818688004800E704792
:10220000DC0000205C235843064BC018C269120A48
:102210000A60036A1B0613430B60036A1B0ADBB2E6
:102220004B607047DC0000205C234343024A9B184C
:1022300018684000400F7047DC0000205C234343D7
:10224000024A9B1818684001400F7047DC000020CC
:102250005C225043054B10B5C4180021200000F04B
:102260005DFC402322681343236010BDDC00002086
:102270005C235843024BC018436A41627047C04612
:10228000DC0000205C2310B558430D4B0C78C018BF
:102290004B78C26A1B02234392B21B041343C362EE
:1022A000CB780C791B0289782404026B23430B43FF
:1022B0009B02920D92059B0A1343036310BDC04617
:1022C000DC0000205C225043044B0902C018836AE2
:1022D000090A1B0E1B060B4383627047DC000020BB
:1022E0005C225043044B0906C018836A1B021B0A78
:1022F0000B4383627047C046DC0000205C23FC2255
:102300005843054B9201C0180902C36A1140034AA1
:1023100013401943C1627047DC000020FFC0FFFF7B
:102320005C23FC225843054B9201C0180902036844
:102330001140034A1340194301607047DC0000203C
:10234000FFC0FFFF5C235843094BC018C2690B68EC
:10235000D2B21B021343C3614B680968026A090EBB
:102360001B020B43120C12049BB21343036270470F
:10237000DC0000205C235843064BC018026A036A45
:1023800092B21B0C1B0413438022120213430362FC
:102390007047C046DC0000205C2380225843034B7A
:1023A000C0180368934303607047C046DC000020F8
:1023B0005C235843024BC018836881607047C04655
:1023C000DC0000205C23E0225843054BD205C018F6
:1023D000090703681140034A13401943016070471D
:1023E000DC000020FFFFFF8F5C235843064BC01822
:1023F00083690B6883614B68FF21C2690B408A4384
:102400001343C3617047C046DC0000205C23FF21FA
:102410005843054BC018C269C3690A408B43134334
:1024200080221343C3617047DC0000205C235843C3
:10243000034BC01880230268134303607047C046F3
:10244000DC0000205C235843024BC0184368416005
:102450007047C046DC0000205C23E0225843054B57
:10246000D204C018090603681140034A13401943F7
:1024700001607047DC000020FFFFFFF85C231F2293
:102480005843044B1140C018C36A93430B43C362C3
:102490007047C046DC0000205C233F225843044BB9
:1024A0001140C018036893430B4303607047C04654
:1024B000DC0000205C235843034BC01880230268D3
:1024C0001B02534003607047DC0000209D2304285A
:1024D00000D08B3B1800704710B504F0B8FB10BD5E
:1024E00010B504F02DFF10BD10B504F0C3FF10BDF2
:1024F00010B505F0C1F910BD10B503F0D9FD10BD40
:1025000010B503F0B7FD10BD10B507F065FF10BDA5
:1025100010B507F057FF10BD10B508F065F810BDF5
:1025200010B508F0A9F810BD10B508F070F910BD8D
:1025300010B504F0D3FA10BD10B504F0E5FA10BDE3
:1025400010B504F0F0FA10BD10B504F0FFFA10BD9C
:1025500010B504F01DFB10BD10B504F042FB10BD1A
:1025600010B504F004FD10BD10B504F0FBFC10BD67
:1025700010B504F0B3FC10BD10B504F0CDFC10BDD7
:1025800010B504F0E7FC10BD10B504F09DFC10BDC3
:1025900010B504F08FFC10BD10B504F022FD10BD85
:1025A00010B504F0EEFC10BD10B504F0EFFC10BD4A
:1025B00010B504F0F3FC10BD10B504F049FC10BDDB
:1025C00010B504F076FB10BD10B504F055FB10BD3E
:1025D00010B504F0E6FB10BD10B504F01DFC10BDF5
:1025E00010B504F0A3FB10BD10B504F0F8FB10BD4E
:1025F00010B504F0B8FB10BD10B504F078FB10BDA9
:1026000010B504F033FB10BD10B504F02FFC10BD65
:1026100010B504F024FC10BD10B504F0F5FC10BD9D
:1026200010B504F0FAFC10BD10B504F0FFFC10BDAD
:1026300010B504F00CFD10BD10B504F049FD10BD3F
:1026400010B504F029FD10BD10B504F069FD10BDF2
:1026500010B504F058FD10BD10B504F0D0FC10BD4D
:1026600010B504F0C6FC10BD10B504F006FD10BD99
:1026700010B504F03CFD10BD10B504F0E1FC10BD38
:1026800010B504F05AFD10BD10B504F07EFD10BD6C
:1026900010B504F084FD10BD10B504F067FD10BD49
:1026A00010B504F057FD10BD10B504F09FFD10BD2E
:1026B00010B504F0A4FD10BD10B504F0A6FD10BDCA
:1026C00010B504F08CFD10BD10B50EF015FE10BD58
:1026D00010B508F04FFA10BD10B50DF097FA10BD07
:1026E00010B50EF0D1FA10BD10B509F0F5FB10BD14
:1026F00010B50AF071FA10BD10B50AF0EBFD10BD6F
:1027000010B50BF02DF810BDF0B589B007930EACE5
:102710000FAD10AE11AF12AB24782D7836783F781C
:102720001B78039704930296079B019500940CF085
:1027300001FC09B0F0BD10B50EF07EFF10BD10B564
:102740000EF028FF10BD10B510F0C4FA10BD10B582
:1027500010F0DDFE10BD10B505F044FB10BD10B546
:1027600005F006FC10BD10B505F010FC10BD10B54D
:1027700006F024F810BD10B506F090FE10BD10B59F
:1027800007F020FA10BD10B503F050FA10BD10B5D7
:1027900003F0ABFA10BD10B503F09BFA10BD10B5F5
:1027A00003F09FFA10BD10B503F08FFA10BD10B5FD
:1027B00003F093FA10BD13B5049C009403F099FA4A
:1027C00016BD13B5049C009403F099FA16BD70B5BC
:1027D0008CB06B4615000C001900103516780132CC
:1027E000DE73013BAA42F9D1C36808AA0493836847
:1027F000059343680693036804A807930023FFF733
:102800002BFA210008AB0C31DA7898781206000414
:1028100002431878024358780433000202430A60E6
:102820000A0004399442EFD10CB070BD024A13681B
:10283000013313607047C0461409002007B501A892
:10284000FEF7DEFEFA2101988900FDF7FBFC8023EC
:1028500002385B0498420DD2C021074A0906506035
:102860000648036A1B021B0A0B43036200239360A2
:102870000733136007BDC04610E000E000ED00E044
:10288000FF2303708023DB055A68154982B08A4212
:102890001DD1032202700F211A6812090A404270EA
:1028A0001A680A4082705B6843600E4B1B689BB2DB
:1028B00001339B00836000230093009A9A420BD05F
:1028C0000193019B01339B03C36002B0704706492B
:1028D0008A42E0D10522DDE7C023DB01F4E7C046F0
:1028E00041E0010214100040418002020022144B1A
:1028F00070B51A605A609A60DA601A615A619A611A
:10290000DA611A625A62E022C024120680255860F9
:10291000801802221960E401AD05A04203D2465995
:10292000910059180E60013204300A2AF5D1BFF324
:102930004F8F044B044ADA60BFF34F8FC046FDE768
:102940003400002000ED00E00400FA0537B53549F9
:102950000B78002842D0002B1ED1012280250A705E
:1029600031496D004C6D2C434C654B6D2B400193F0
:10297000019B8023DB05196B11431963596B91434C
:102980005963D96A9143D962996B11439963DA63A8
:102990008022264B92041A608022254B9200D9692E
:1029A00011421AD1D969490517D4DC6921490C4073
:1029B0002243DA6104225C691442FCD10F2400280E
:1029C0001ED00E22D869A0430243DA61DA691140B1
:1029D0000422D96159691142FCD037BD012BDBD1EA
:1029E000802280240870D205916BA40499439163DE
:1029F0001149CC67BFF34F8FBFF36F8FD363CBE722
:102A0000D869F025A04302438020DA61C00502683E
:102A100000682A4020400243102AD7D1DA69A24335
:102A2000D3E7C046180900200000404800E100E05C
:102A300000005048FFFDFFFF04E100E00E4B1B7853
:102A4000002B13D08023DB05DB6BDB070ED5A62222
:102A50000A4B920098580221443AC00607D598586C
:102A60000143995080230122DB05DA6370479858AF
:102A700088439850F6E7C04618090020001400600B
:102A80007FB5060068460D001400FFF7F9FE6B469F
:102A90001B7833706B465B782B706B469B7823708A
:102AA0007FBD10B5FFF752FF10BD0000A92313B57D
:102AB000094A9B00D3580093AA239B00D358019343
:102AC000009C019BE4B21B061B0C23430360AB2359
:102AD0009B00D3580B6013BD0014006007B5684617
:102AE00001A9FFF7E3FF009A7F20002A0ED0019989
:102AF0000B290BD806234B43763B1E2A08D8A2206D
:102B0000FF305043044A8018800AC01840B20EBDFE
:102B100006335208F1E7C046A046000010B501F0A8
:102B200057FF10BD10B501F029FF10BD0023032190
:102B3000026810B5836083731378FF2B05D1436857
:102B4000043B9A1A8281002010BDFE2B0CD1038910
:102B5000013303815388446803330B439B185A1C89
:102B60000633A342E8D3EEE7002B03D143890133B8
:102B70004381EFE70320E7E7F0B50E00140085B0CE
:102B800000930AAB1F780190114B1B88A34202D11E
:102B9000002005B0F0BD0F4903AD042228006118E4
:102BA00001F0FAFE002F08D1EB78019A934204D18C
:102BB000062E07D0AB78B34204D02A880027A41889
:102BC000A4B2E1E7009B0120002BE2D01C80E0E7EB
:102BD000460A002044090020F0B50E00417B0700A2
:102BE000150087B0002925D1144B1A880E246C4497
:102BF0002300009138780121FFF7BEFF042300284D
:102C000015D0033B24887B730D4BFC81E41806220E
:102C1000210004A801F0C0FE6B461B8A0634063B67
:102C200034602B806B460C9A1B7D137000231800B8
:102C300007B0F0BD1900C289D8E7C046440A002099
:102C400044090020802270B5094E520034880300E8
:102C50000D000020121B914208DC06480A002018D3
:102C6000190001F099FE01206419348070BDC0463E
:102C7000460A002044090020F0B5160000278C0801
:102C8000A40085B00D1B0190EDB2BC420FDC012306
:102C90002A005B42311903A8039301F07DFE019BDA
:102CA000039A0948E118FEF71FFC05B0F0BDF119C1
:102CB000042203A801F070FE019B039AD91902486F
:102CC000FEF712FC0437E0E700100040F8B580235F
:102CD0000C4E0D4F328839885B00541AA4B21D1B6C
:102CE000AC46002560450BDC9B1A0135984207DD98
:102CF00006482200091801F058FE002334803B806A
:102D00002800F8BD460A0020440A0020440900209B
:102D1000F0B589B01E0003910EAB17001A88437BF3
:102D20000400002B0AD00F9B3200009339000123CE
:102D30002000FFF751FF00280CD00AE043681D0077
:102D4000002A03D005AD6A80FE222A70A2689A424A
:102D500002D8042009B0F0BD2B78FF2BF9D0237BDB
:102D6000002B2CD0002323732B78002BF7D0FE2BC5
:102D700043D1039BFF2B03D06B78039A9342EED190
:102D80001F4B02A91A880A235B181A80002302AA83
:102D9000528900930A2302A95B1820780221FFF7C9
:102DA000EBFE00281BD1636804333B606B883380E3
:102DB0000F9B002BCED06B780F9A1370CAE70322BB
:102DC0006B8803331343626801329B18A2681D00AD
:102DD00063609342A7D21B78FF2BC5D1A3E702AB58
:102DE0005989084B0822C91806A801F0D5FD079B90
:102DF00062689342B3D00123C9E70320AAE7C04623
:102E0000440A002044090020F0B58BB0049310ABB5
:102E100080CB0D001988002305923B80427B060081
:102E20009A4214D03A00009308A9FFF7D5FE041E79
:102E300057D13A88049B521B9A4200DD1A00089B26
:102E40000598591901F0A8FD20000BB0F0BD4268AB
:102E50000392002904D007AB5980FE210393197017
:102E6000B36804249342EFD9039B1B78FF2BEBD06C
:102E7000327B0134002AE7D1FE2BE5D11B4B04A99C
:102E80001A880A235B181A8004AB5A89012304A903
:102E9000009309335B1830780221FFF76DFE041EA2
:102EA00013D1039B5A8895421DD2049B3073521B49
:102EB0009A4200DD1A00291D75680598491901F02C
:102EC0006BFD039B5B883B80BEE704AB5989084BD5
:102ED0000822C91808A801F05FFD099B7268934297
:102EE000D2D10524B0E70624AEE7C046440A00204C
:102EF00044090020F0B5032485B0013A1E000AAB56
:102F00001F8814430134A4B2BD1D6519ADB20090F1
:102F100028000191FFF7DAFE0823002815D002AA45
:102F2000073B937013001580009A1800DA70019A1D
:102F300006211A71FFF786FE21003000FFF782FE9E
:102F400039000B98FFF77EFE0023180005B0F0BD96
:102F500073B5040006200E001500FFF7B7FE082326
:102F6000002812D006216B466A4619800423684661
:102F70009370D47016715571FFF764FE142001230D
:102F80006043034C2418A3730023180076BDC04689
:102F90001C090020F8B505000E00140001F0EEFC3D
:102FA00000280FD00C4B621E13430C4A0133DB0A7E
:102FB000AA1800210A48DBB2D20AFEF7A2FA0027BB
:102FC000A74200D3F8BDBB109B0079199A59044859
:102FD000FEF78AFA0437F3E7FF0700000000FCEF72
:102FE00000100040F0B51A4B87B01B8802AA02936C
:102FF0000A239B18029A03901A80002302AA52897E
:1030000000930A2302A95B1803980621FFF7B4FD79
:10301000002801D107B0F0BD02AB5C890D4B05ADB6
:10302000E71804223900280001F0B6FC0A4B2E886C
:103030001D88029B3119EA1A064B92B2C918380052
:10304000921B01F0B2FC044BAD1B1D800123D5E7A0
:10305000440A002044090020460A0020F0B58DB043
:1030600004910790FF21049805920693129E01F0A7
:10307000AFFCFE2200240AAB1A70059B3278043B99
:103080001B1B9BB20393B38809AF002A50D00022C8
:103090003A800E2706AABF18112206A952180192DB
:1030A0000093FF213B0007980BAAFFF731FE051E96
:1030B0000ED13F88002F15D0049B039A201D1818AD
:1030C000BA4200DD3A000B9901F066FC09AB1F80A3
:1030D00009AB1B88B380002D06D0069B1C802800FE
:1030E0000DB0F0BD0625F3E706AA5382049B042227
:1030F00018190AA901F050FC06AB5A8A03230332BF
:103100001A430132A418032109AB1B887288013BC2
:103110009B1A0B43013303999BB2A4B299421AD272
:103120000025521835707280069B059A1A80D6E7E2
:10313000049A7188079801931219039B0097FFF76F
:1031400063FE051ECBD103233C887288013CA41A80
:103150001C430134D7E7039A9A4204D10123002586
:1031600033707580E0E7039A9A4200D885E701231F
:1031700033700023738080E7F0B585B001930AAB0C
:103180001B8806000093032387687568681DB84292
:103190000BD31423327802205A432D4B9B185B89A2
:1031A000002B00D0093005B0F0BD2878FF2826D1CB
:1031B0008020541E1C430134009BA4B2E318DA1C87
:1031C0007F1B4002874200D3224FBA42E1DAFE2041
:1031D00003AA9BB2107051705380EFF3108772B640
:1031E000181D1B2380B28008013058430A3000F0BC
:1031F000FBFC00280ED187F310880730D3E7FE28A8
:1032000001D0002822D168880135033018434519C0
:103210007560BAE72900039A04350F48FEF764F990
:1032200021002800019AFFF727FD0B9A00996019E9
:10323000FFF722FD87F310881423327800205A43C9
:10324000034B9B181A8901321A81ACE70320AAE7C5
:103250001C090020FFFF00000010004070B50400B2
:10326000EFF3108572B6402000F0BEFC002803D1B9
:1032700085F31088073070BD2100044A0448FEF72A
:1032800033F985F310880020F5E7C04600FFFFFF03
:103290000010004070B505000C002078002819D0FF
:1032A000EFF3108672B60C4800F09EFC00280ED09A
:1032B000012300212A780948FEF723F986F31088B4
:1032C0002B7801332B702378013B2370E5E786F3DD
:1032D0001088072070BDC046592300000010004030
:1032E000F0B53D4CA544040008AD2A00237E0593AB
:1032F000638B0393A38B0493231D43CB43C21B68AF
:10330000201D13602300183300930E2304AA9B187A
:1033100080220CA91201FFF7A1FE04AB0600D88998
:1033200080231B01984222D0002EDDD000281ED120
:10333000E3686269591E294B0B439B1A013304A9A8
:10334000DB0A0B73264BD2180D23D20A4A7304AA48
:103350009B18180007A9FFF79DFF03002079072B92
:1033600033D104AB1A7B597BFFF7F2FD19E0EFF381
:10337000108772B61B238008013058430A3000F0D2
:1033800033FC002810D187F31088231D07CD07C315
:1033900007202A681A60059B2376039B6383049B9E
:1033A000A383104B9D44F0BD04ABDA8960690CA97E
:1033B000FFF7F0FD87F310888022636912019B18E4
:1033C0006361002E00D18FE7B2E714234343064820
:1033D000C018FFF7ABFBE4E7CCF7FFFFFF070000E7
:1033E0000000FCEF340800001C090020F0B589B093
:1033F00003921D00437B04000E00002B1FD00E27FC
:1034000002ABFF1800233A00009306A9FFF7E4FB84
:103410000523002810D13B889B1B9BB29D4209D8F5
:10342000069B99192A00039801F0A8FA431E9841B7
:10343000434201E001235B42180009B0F0BD476838
:10344000826804239742F7D23A78FF2AF4D0017BAE
:1034500001330029F0D1FE2AEED1154B02A91A88BA
:103460000E235B181A8002ABDA89012302A90093AC
:103470000D335B1820780221FFF77EFB002808D16E
:103480007A880623B242D7D96368311D2073C918E0
:10349000C8E702ABD989074B0822C91806A801F072
:1034A0007BFA079B62689342DDD10523C4E7C046DF
:1034B000440A002044090020F8B5002514260127FD
:1034C0000E4C3300A2790E4853431958002912D1EB
:1034D000012A10D822681A50C018A3889B1843608C
:1034E00023890382FFF722FB002805D10C34012D2C
:1034F00002D03D00E5E70120F8BDC0462454051088
:103500001C0900200300012030B583420AD814248E
:103510005C43054AA55812195268888100204D6005
:103520008A600B7030BDC0461C0900208022F0B5B7
:10353000234C1201A54403900C000CA8FF2101F0BC
:1035400047FA002501272379AB420DDCEFF3108504
:1035500072B61C4800F048FB002826D185F310887D
:103560000730194B9D44F0BD0C266E43A368985D4F
:10357000039B984217D008A9FFF7C4FF0022A36855
:103580000CA89E1906AB71685A809A8080221F7021
:1035900000930E231201521A411802A81B1892B26E
:1035A00008A8FFF75BFD0135CDE7802220681201F6
:1035B0000CA9FFF7EFFC85F310880020D1E7C04687
:1035C000CCF7FFFF59590000340800001422424391
:1035D000684BF0B59B185A890023674CA54404003A
:1035E0009A4200D180E0654A062112880093FFF7D5
:1035F000C3FA09230390002876D12020FFF766FB49
:103600000823002870D020000CA9FFF77BFF0122BF
:103610000AAB1A70039A0D9F5A809A800AAD2B78D4
:10362000102207936B880CA90693AB880E2610A86E
:10363000059301F0B1F9802206ABF618330000952E
:10364000120120A90CA8FFF709FD042102008A43FA
:10365000D2B205000300002A46D1802330881B0126
:10366000984203D0002DD9D0002856D0EFF3108611
:1036700072B61B23800801305843414BC01800F03C
:10368000B3FA031E049036D186F31088039A0733E9
:10369000002A29D010AD14AC29001022200001F01E
:1036A0007BF920202D78FFF711FB002820D0202364
:1036B0009C4618A803801D3B8370257019AB46CC2F
:1036C00046C3226861461A60079B47610376069BE2
:1036D0004383059B8383FFF7B5FA14236B43254D82
:1036E000ED180123AB73049B1800264B9D44F0BDDD
:1036F00008230493F7E70E2306AA9B1838001A88BC
:1037000020A9FFF747FC86F3108880231B01FF18D0
:10371000002D02D10123039380E748210E9A1A4B12
:10372000013A13430133DB1B06AA5218DB0A13705C
:10373000164B2031FB1806AA5218DB0A18A920A83C
:103740001370FFF7A7FD07280CD14822682106ABAC
:103750009B181A7806AB5B1820001978FFF7F8FB66
:103760000300C1E71420444302480019FFF7DEF9C3
:10377000F6E7C0461C0900207CF7FFFF440A002042
:103780003E23000084080000FF0700000000FCEF5B
:10379000F0B587B003930CAB1F8814231500027893
:1037A0000A245A43114B9B189B7B002B19D10D9A6D
:1037B000138002AAA6180193009305AA3300FFF70D
:1037C000A7FA041E0DD13688B5420DD2721BBA423B
:1037D00000DD3A00059B0398591901F0DDF80D9BB7
:1037E0001E80200007B0F0BD0624FAE71C09002067
:1037F00037B5057804001420454306484019857BF9
:103800000A20002D05D10698019500902000FFF7B1
:10381000FBFA3EBD1C090020F0B50E00142185B056
:103820001F000AAB1B880500039303780920594346
:103830009C46254B59188B7B002B0ED10324013A53
:1038400014430134039AA4B2A0188A89904206DD79
:103850004B890B20002B00D1093805B0F0BD1B4A65
:103860000621128860460093FFF786F900281BD0D6
:103870000B9B22000193039B3100009328783B00AF
:10388000FFF738FB0028E8D1142203992B7801397F
:10389000611803245A430C4B0C439A189389002057
:1038A000053B1C1B9481D8E70B9B22000193039BD3
:1038B0003100009328003B00FFF75EFC0028E3D0B6
:1038C0000728CAD1D4E7C0461C090020440A0020BA
:1038D000F7B514260378274A7343D3189C7B050059
:1038E000002C45D1477B002F10D0C589224B0622E2
:1038F000ED182900684601F04FF86B46062269462C
:1039000028009C7001F048F82000FEBD4068AB68BC
:1039100004249842F8D20378FF2BF5D00134FE2B13
:10392000F2D1FFF79BFC041E0AD12B785E43114BAA
:103930009E193389013B3381738901337381E3E736
:103940000728E1D108202C786D68FFF7BFF908211E
:1039500000280BD06B466A46198002236846937094
:10396000D4700195FFF76EF93C00CDE70F00FBE73F
:103970000924C9E71C0900204409002014234343FB
:103980001D4A73B5D3189D7B0400002D2FD11B4B0E
:103990009979814202D09B7C83422AD114266643C6
:1039A000174B91599619CA186B46D20A9A717368C7
:1039B00020005A1E134B13436A465B1A0133DB0A7D
:1039C000D371FFF70FFB6B46D91D981DFFF762FC03
:1039D000072808D16B462000DA799979FFF7B8FA01
:1039E0000500280076BD3000FFF7A0F8F9E70925AB
:1039F000F7E70125F5E7C0461C090020245405100F
:103A00000000FCEFFF070000064B10B59A798242D8
:103A100003D09A7C0123824202D1FFF7D7FD030035
:103A2000180010BD24540510F0B58FB0694B1F88E5
:103A3000694B1B88BB421DD1002414266749684D81
:103A40000C57E0B232004243AA185789431C002F9A
:103A500000D1B1E09789128A974200D3ACE05BB203
:103A6000022B00D1A6E00B7043B2002B00DBADE0CF
:103A7000002429E05B4D03AE7C19042221003000B4
:103A800000F08AFFB0780138042800D990E0FCF7F4
:103A9000C5FB031E47506D0004AE06222100300016
:103AA00000F07AFF06A9F078FFF72CFD002032889D
:103AB000BB1D063A3179EB180190009092B206A82E
:103AC000FFF75AFB041E18D020000FB0F0BD2100F4
:103AD000082206A800F060FF0798FFF7BFFB041E4E
:103AE000F2D16B46DA7E14235A433D4B9B181A8958
:103AF000013A1A815A8901325A81364A03AB128837
:103B00001B889B18334A9BB21380334A12889A420F
:103B100000D08BE70023304A13802E4A138085E7BC
:103B20002022210006A800F037FF06A8FFF7D8FBE7
:103B3000C8E70622210006A800F02EFF1D2107A8D5
:103B40006944FFF7A7FB234B0400188806222818B6
:103B500006A900F021FF002CB6D16B461422DB7EB3
:103B60001F485343C018FEF7E1FFC6E721000822B3
:103B700006A800F011FF6B46079EDF7E310038007B
:103B8000FFF7D4FC041E9FD13379A342B5DD0C238B
:103B90006343B2689D5CAF4202D02800FFF722FA6F
:103BA00014235D430E4801344019FEF7BFFFEBE7D5
:103BB0000C2489E7002356E7D8B2022800D1002060
:103BC000A04200D03EE700240C707DE7FFF71CFF09
:103BD0004EE7C046440A0020460A0020480A00205A
:103BE0001C0900204409002037B50400FDF752FBF2
:103BF000050001A802F08AF80123002806D0019BE5
:103C00005D1B0123A54200DC0023DBB218003EBD92
:103C100010B5FFF751FC064C00202100FFF772FCA5
:103C200004490120FFF76EFC034B1C6010BDC04629
:103C3000600A0020500A00204C0A002073B50400DE
:103C400006A805880948022C00D10948094E3060B1
:103C5000019300950B002100FFF7DEFD031E03D04A
:103C6000023B58425841023876BDC046600A0020E7
:103C7000500A00204C0A0020F0B587B01D000CABA4
:103C80001B8884460F0014000393022917D10123D7
:103C900016486246164E3060022A13D10E2302AA3D
:103CA0009B1800932A002100039BFFF7A1FD002829
:103CB00003D00438431E9841033807B0F0BD0023F9
:103CC0000C48E6E7002A03D101001800FFF71AFCB0
:103CD0000E2302AA9B180193039B22000093390034
:103CE0002B003068FFF754FDE1E7C046500A002082
:103CF0004C0A0020600A002010B5130014000A00CE
:103D0000010006480068FFF771FB002801D001DAC6
:103D1000200010BD03204042FBE7C0464C0A0020B3
:103D200010B5022807D1074B1868074B984201D0FD
:103D3000FFF7CEFD10BD0328FCD10020FFF71EFECB
:103D4000F8E7C0464C0A0020500A002010B5094C84
:103D50002368022B02D00120404210BD00F020F861
:103D60000028F8D1EFF3108372B60122226083F3AA
:103D70001088F2E7300E0020EFF3108372B6074A86
:103D80001168032904D083F3108802204042704751
:103D90000121116083F310880020F8E7300E002025
:103DA0008020174A4002116D82B001431165136DE6
:103DB00014490340C3200193019B134B80001A5800
:103DC0001140C02212020A431A50802292011A6046
:103DD00001220E4B002019680A431A6080221968DC
:103DE00052030A431A608022196812030A431A60B8
:103DF0008022196892020A431A6002B07047C046D6
:103E000000004048FF00FFFF00E100E000003048F4
:103E100070B500240C4B05001C600C4B1C60FFF7B8
:103E2000ABFF0B4923000A000A4C0D6098000059B3
:103E3000013310640432082BF8D10120064B4042B4
:103E40001B68984770BDC046100B0020140B002063
:103E5000180B0020F00A0020C80D002070B5124C8D
:103E600015002368114A0E001A40C0231B0113439A
:103E7000236001000120FDF761FB2E2032000821A4
:103E8000FF30FDF761FB92202A000821FF30FDF78B
:103E90005BFB80235B0262681A42FCD1022322682A
:103EA0001343236070BDC04600003048FFC0FFFFD1
:103EB000F8B5154C16001D00144A23680F001A406F
:103EC00080235B011343236001000120FDF736FBD3
:103ED0002E203A000821FF30FDF736FB92203200F9
:103EE0000821FF30FDF730FB2A0008210848FDF7C4
:103EF0002BFB80235B0262681A42FCD102232268FA
:103F000013432360F8BDC04600003048FFC0FFFFE8
:103F10005702000010B502000C00002803D0082151
:103F20005720FDF727FB002C04D0220008216C202D
:103F3000FDF720FB10BD000070B5FA260E257600B7
:103F4000734B1A68012A10D1724C20680E2800D9D0
:103F5000DBE0FCF763F9080B0D0F2D3F5260708515
:103F600093A5B3BFC8000123236070BD0223FBE704
:103F70000323F9E700266849684DB3005A58013613
:103F80005A51082EF9D12900280040312030FFF77E
:103F9000C1FF04232A00310061482360FDF7EAFADB
:103FA0002A0029005F4B80204000FFF781FFDCE7FB
:103FB000FA205D4D08212A004000FDF7DBFA0523B9
:103FC0002360564C082122005848FDF7D3FA2A00F6
:103FD000544B10E0FA200821554A4000FDF7CAFA78
:103FE0000623A92023604D4C082122008000FDF704
:103FF000C1FA22004B4B2100D5E7FA204D4D082194
:104000002A004000FDF7B6FA07232360434C08213D
:1040100022004948D9E7FA20484D08212A004000EB
:10402000FDF7A8FA08232A004149236080204000B8
:10403000FFF714FF99E7FA20092340002360FDF7FA
:10404000A9FA002803D03E48FFF7E2FE8DE7334C83
:10405000082122003248FDF78DFA324B324ACAE776
:10406000FA20364D08212A004000FDF783FA0A2382
:1040700023602A4C082122003248A6E7FA200821B2
:10408000294A4000FDF776FA0B23A9202360234C30
:10409000082122008000FDF76DFA224B254AAAE78D
:1040A000FA20234D08212A004000FDF763FA0C2373
:1040B00023601A4C08212200234886E7FA201D4D70
:1040C00008212A004000FDF755FA0D232A00164961
:1040D0002360ABE73000FDF75DFA002801D01B48F4
:1040E000B2E725602CE700251D602560FFF744FE40
:1040F000094C0A49AA00105901355050082DF9D130
:10410000134B00201B6898472FE7A0209CE7C04670
:10411000100B0020140B0020F00A0020180B0020C8
:10412000E30200003C540510700A00207A020000EF
:10413000900A0020B00A0020B9020000D00A002036
:1041400008FF00008F020000CE0200000DFF0000FB
:10415000C80D0020802310B5104C1B0362681A4262
:1041600005D0A268B1201343A360FFF751FE80235E
:1041700062685B031A4205D0A268B2201343A360B1
:10418000FFF746FE802362689B021A4204D0A268B1
:104190001343A360FFF7D0FE10BDC04600003048B7
:1041A00070B5060007480D001400FEF7F8FA3080DD
:1041B0000548FEF7FCFA28800448FEF7F8FA20804C
:1041C00070BDC046DC0E0020380E00205C0E0020C2
:1041D000F7B50E00140000270090019324257D43BD
:1041E000124BED182800FEF7E2FA002803D0009BDE
:1041F0000130984204D00137042FEFD18220FEBD58
:104200002A6A3319918882208B42F8DC90680199E0
:104210002200801900F0C0FB2B6A022219780800E6
:1042200010401142EBD000205C80E8E7380E0020FF
:1042300070B5040006480D001600FEF7B8FA01300C
:1042400033002A00210080B2FFF7C2FF70BDC046D4
:10425000380E0020F8B5124D070028000E00FEF7BA
:104260009AFA041E12D12800FEF799FA0500BB073E
:104270000ED1022E05D129000A48FEF794FA002833
:104280000CD107210020084AFFF7D2FF2000F8BD1B
:1042900001000648FEF787FA0028EAD00400F5E797
:1042A000DC0E0020A40E00205C540510800E0020BF
:1042B00010B50248FEF76FFA10BDC0461C55051038
:1042C00080200C4AC002116D82B0014311650421A7
:1042D000136D03400193019B074B1A688A431A60D0
:1042E000012259681142FCD058688008104002B081
:1042F0007047C04600004048000060480122044B5F
:1043000059681142FCD09B689BB203600020704743
:104310000000604830B58FB004AC22001B4B23CBAB
:1043200023C223CB23C223CB23C2A0201B68C002FD
:104330001360174A116D01431165136D034001931A
:10434000019BFDF70FFDA0236A465B00138100234C
:1043500002A893720393FCF7A1FFFFF759FCFFF744
:10436000F5FC431C00D1FEE7FFF7AAFF002800D0B0
:10437000FEE7FDF759FC200001F0DCFE011E03D032
:10438000044800F02DFBFEE70FB030BDF4530510DC
:10439000000040484455051010B5FCF7E1FF01F05E
:1043A000F1FEFFF741FB10BD10B500210120FCF725
:1043B000D7FC002800D0FEE7FCF768F9FEF73EFACC
:1043C0000C48FCF72FF8FFF7A5FF0B490B4800F04E
:1043D00007FB00F0A5F8011E03D0094800F000FB20
:1043E000FEE7084800F088FBFFF7D6FF00F0E8F989
:1043F000FAE7C04601470410675505106D550510D2
:10440000AB550510D7550510032808D8BFF34F8FBB
:10441000034B044ADA60BFF34F8FC046FDE7704795
:1044200000ED00E00400FA0510B5032806D8537823
:1044300010781B0213211843FEF7A5F910BD0000E8
:1044400070B50E48FEF7A7F9041E05D00C4800F021
:1044500053FB8624200070BD0A4E3000FEF7A7F9FA
:10446000094D288030002430FEF7A1F9074B0200E7
:1044700018802988064800F0B3FAEBE7A456051027
:10448000EE5505105C560510CE0D0020CC0D002019
:104490001656051010B5EFF308800249FEF726FA0C
:1044A000FEE7C0460100ECBC10B5EFF308800249FE
:1044B000FEF71CFAFEE7C0460200ECBC704710B5E0
:1044C000FEF7B4F910BD10B5FCF770F810BD7047D9
:1044D000704710B5FCF74EFE10BD10B5FCF74CFE52
:1044E00010BDC0230122DB05596F82B00A435A6711
:1044F0005B6F019302B0704770B5C024E405E569B5
:1045000066686660FCF754FE2800304309F0B0FF8F
:10451000FCF754FE636870BD10B5FEF78FFA10BD4E
:1045200030B595B009223D490FAD11A800F034FA1D
:1045300006223B49280000F02FFA2A00062100201D
:1045400001F0EAFC041E06D00100364800F048FAEB
:10455000200015B030BD182101F0DAFCFEF717F984
:10456000041E02D001003048F0E7304800F0C4FAE1
:104570003A236B4402930EAB019336236B44210024
:10458000009309222300012001F016FB041E02D033
:1045900001002748DAE7274800F0AEFA2000092199
:1045A00011AAFFF745FE041E02D001002248CDE704
:1045B000224800F0A1FAFFF743FF041E02D00100D9
:1045C0001F48C3E71F4800F097FA0123089306939A
:1045D00006330193993313220093022120000A9499
:1045E00009940794059404940394029401F03EFB0B
:1045F0000100154800F0F4F9144922000B00A85CF2
:10460000013248770139062AF9D1032100201832F6
:1046100001F053FB01000E4898E7C0465D580510B5
:104620001C540510D8560510F956051020570510D2
:1046300041570510625705107E570510A957051000
:10464000D1570510FB57051022580510400F0020C8
:1046500042580510F7B5204D2B685B0637D52B68FF
:104660009B0634D41D4F1E4A3B8814889C420AD8AE
:1046700040212B688B432B60002313808022194B31
:1046800052001A6023E0E41A142C00DD1424164AA8
:10469000A4B21188154A01311088154A89B29B18B5
:1046A000009300222300FEF786F8061E10D0114862
:1046B00000F096F9104800F093F931000F4800F02F
:1046C0008FF9882E04D120232A6813432B60F7BD6D
:1046D0003B88E4183C80C5E73C0F0020BA0D002061
:1046E000B80D002000E100E0CE0D0020BC0D002040
:1046F000B80B002067580510765805107E58051035
:10470000F7B5060000240191019B9C4200D3F7BD40
:10471000FF22194D52002B88934201D900232B8090
:10472000325D164F2B8801213019FA54FBF72EFF0A
:104730002B8801339BB2FA18013A12782B800A2A8F
:1047400001D00D2A12D10022012B12D040200C4999
:10475000FA540B6803430B6080210A4B4900D96768
:10476000BFF34F8FBFF36F8F074B1A800134E4B252
:10477000CAE72A80FAE7C046B80D0020B80B00202F
:104780003C0F002004E100E0BA0D002000230121CD
:10479000084A10B5080013705380137101F091FAA4
:1047A000011E03D0044800F01BF910BD034800F0BF
:1047B000A3F9FAE7B20B002097580510CB58051063
:1047C00070B50225054C23682B4204D0FFF7DEFFAD
:1047D0002368AB432360FFF73DFF70BD3C0F002013
:1047E00070B50C004518AC4200D170BD2078FBF7C5
:1047F000F1FE0134F7E7000010B500280AD1064B9E
:10480000064A1980012311680B4301000448136014
:1048100000F0E6F810BDC046BC0D00203C0F0020A3
:10482000F958051010B500280AD1064B064A198020
:10483000012311680B4301000448136000F0D0F815
:1048400010BDC046BC0D00203C0F0020F9580510DB
:104850000120134B11001A6810B582431A6002221E
:104860001868024304201A601A6882431A601A68A2
:104870001C3082431A601A680A4802401A601A689B
:10488000094802401A601A68084802401A601A680B
:104890000748024007481A6000F0A2F810BDC04661
:1048A0003C0F0020FFFEFFFFFFFDFFFFFFFBFFFFB0
:1048B000FFF7FFFF15590510094A10B5128802329B
:1048C000914208D11B78012B04D1064A03331168A9
:1048D0000B43136010BD044800F082F8FAE7C046AD
:1048E000CE0D00203C0F00203459051010B50248B1
:1048F000C9B200F075F810BD6E5905102021024AAA
:1049000013688B43136070473C0F00207047000012
:1049100073B5050018000A4B0E001B881400013304
:104920009A4202D10699FFF75BFF012E06D10022C1
:104930002100130028000092FDF743FF73BDC0461D
:10494000CC0D0020704710B5002200F009F810BD12
:1049500010B500F021F810BD10B500F026F810BD1C
:104960000B0010B511001A0000F032F810BD000065
:10497000014B18687047C046600F002030B5002416
:104980000139A24201D1002005E0035D01340D5D33
:10499000AB42F6D0581B30BD002310B59A4200D16F
:1049A00010BDCC5CC4540133F8E710B5884202D97D
:1049B0008B18984203D3002307E08B5C8354013AA1
:1049C000FBD210BDCC5CC45401339A42FAD1F8E753
:1049D00003008218934200D1704719700133F9E740
:1049E0000FB40B4B13B51C68002C05D0A369002B2A
:1049F00002D1200000F04EFB05AB2000049AA16814
:104A0000019300F031FD16BC08BC04B01847C04645
:104A1000600F002070B505000E00002804D08369E7
:104A2000002B01D100F036FBAB69AC68002B02D142
:104A3000280000F02FFB2D4B9C4222D16C68636E46
:104A4000DB0705D4A3899B0502D4A06D00F0C3FB4E
:104A5000A3891B0702D52369002B29D12100280037
:104A600000F072F9002823D001256D42636EDB0748
:104A700005D4A3899B0502D4A06D00F0ADFB2800EE
:104A800070BD1B4B9C4201D1AC68D8E7194B9C42CE
:104A9000D5D1EC68D3E70136A360002B04DAA26914
:104AA0009A4216DC0A2914D023685A1C2260197015
:104AB000A3683178013B0029EDD1A360002B0FDA08
:104AC000280022000A3100F0E9F80A25431CCDD164
:104AD000CAE72200280000F0E1F8431CE8D1C3E750
:104AE0000A2523685A1C22601D70BFE7A0590510D3
:104AF000C05905108059051010B5034B0100186806
:104B0000FFF788FF10BDC046600F0020F0B51D0004
:104B10005D4B85B01E6804000F000092002E05D08A
:104B2000B369002B02D1300000F0B4FA574B9C421D
:104B300061D17468009B022B05D0012B00D99DE048
:104B4000002D00DA9AE0636EDB0705D4A3899B058C
:104B500002D4A06D00F03FFB2100300000F0F8F916
:104B6000616B002908D023004433994202D0300001
:104B700000F0AAFB002363630023A3616360A389A1
:104B80001B0603D53000216900F09EFBA389404A33
:104B90001340A381009B022B00D169E003AB2100ED
:104BA000300002AA00F01AFBA3890343A381002D61
:104BB0002BD1029D280000F07DFB071E53D1029BE4
:104BC0000193AB4249D101256D420223A289616E56
:104BD00013430022A2602200473222602261012298
:104BE0001BB2A3816261114234D19B0532D4A06D06
:104BF00000F0F2FA2EE0274B9C4201D1B46899E70D
:104C0000254B9C4296D1F46894E7002FD2D0B3692B
:104C1000002B02D1300000F03DFA009B012B02D1A5
:104C2000A2891343A381A289082311002760276169
:104C3000656119401A421FD0D3071BD500236D426E
:104C4000A360A561616E01230D001D40194218D1BA
:104C50009305CCD5280005B0F0BD019800F02AFBE3
:104C6000019D071EAFD08023A2891343A381CEE705
:104C70000025AAE7A560E5E7A160E3E701256D420D
:104C8000E8E70025E6E7C046600F0020A0590510C0
:104C90005CF3FFFFC059051080590510F8B50500F9
:104CA0000E001400002804D08369002B01D100F00D
:104CB000F1F9224B9C422ED16C68A369A360A389B1
:104CC0001B0732D52369002B2FD023682269F7B246
:104CD000981A6369F6B2834205DC2100280000F0CF
:104CE00037F9002827D1A3680130013BA36023686E
:104CF0005A1C22601F706369834204D0A389DB07BA
:104D000007D50A2E05D12100280000F021F900283E
:104D100011D13000F8BD0A4B9C4201D1AC68CCE700
:104D2000084B9C42C9D1EC68C7E72100280000F07D
:104D30000BF80028C9D001267642EAE7A0590510F1
:104D4000C059051080590510374B70B51D68060015
:104D50000C00002D05D0AB69002B02D1280000F01B
:104D600099F9324B9C420FD16C680C23E25E93B2EE
:104D700011072DD4D90611D409230120336037330C
:104D80001343A381404270BD294B9C4201D1AC68C2
:104D9000EBE7284B9C42E8D1EC68E6E75B0713D5CC
:104DA000616B002908D023004433994202D03000BF
:104DB00000F08AFA002363632422A3899343A3812A
:104DC00000236360236923600823A2891343A3811E
:104DD0002369002B0BD1A0218022A3898900920096
:104DE0000B40934203D02100300000F01FFA0C2248
:104DF000A35E01201A0099B2024003420FD00022A4
:104E0000A26062695242A261002022698242BAD144
:104E10000A06B8D540221343A3810138B3E78807B7
:104E200000D46269A260EFE7600F0020A05905106E
:104E3000C059051080590510F7B58B8905000C0085
:104E40001A075FD44A68002A04DC0A6C002A01DCD5
:104E50000020FEBDE76A002FFAD0002280212E68D4
:104E60002A601A0049010A400B4234D0606DA389C0
:104E70005B0706D56368C01A636B002B01D0236CF7
:104E8000C01A0200216A00232800E76AB847A189F6
:104E9000431C06D12B681D2B31D82C4ADA40D3078E
:104EA0002DD50023636023692360CB0405D5431C03
:104EB00002D12B68002B00D16065616B2E60002948
:104EC000C6D023004433994202D0280000F0FCF9F8
:104ED00000206063BDE701232800216AB847431C16
:104EE000C5D12B68002BC2D01D2B01D0162B01D1B0
:104EF0002E60ADE74023A2891343A381A9E7402395
:104F00000B43FAE70F69002FA2D00A680F60D21B8B
:104F1000019200229B0700D14A69A260019B002BED
:104F200000DC95E73A002800019B216AA66AB04799
:104F3000002806DC40230120A28940421343A381BC
:104F400087E7019B3F181B1A0193E7E70100402008
:104F50000B6970B505000C00002B02D1002528005C
:104F600070BD002804D08369002B01D100F092F8B5
:104F7000144B9C421BD16C680C22A35E002BEDD01D
:104F8000626ED20704D49B0502D4A06D00F023F911
:104F900028002100FFF750FF636E0500DB07DED419
:104FA000A3899B05DBD4A06D00F016F9D7E7064B6B
:104FB0009C4201D1AC68DFE7044B9C42DCD1EC6839
:104FC000DAE7C046A0590510C059051080590510F0
:104FD000002310B504000360436083608181436651
:104FE0001900C28103614361836108225C30FFF7CD
:104FF000EFFC054B6362054B2462A362044BE36242
:10500000044B236310BDC046055A04102D5A0410EA
:10501000655A0410915A041010B5024900F0BAF80C
:1050200010BDC046514F041070B568254A1E554347
:105030000E002900743100F091F9041E08D00021FF
:105040002A00016046600C30A0606832FFF7C0FCA7
:10505000200070BD10B5024800F0BDF810BDC0467C
:10506000D40D002010B5024800F0B6F810BDC046BF
:10507000D40D002010B5024800F0ADF810BDC046B8
:10508000D30D002010B5024800F0A6F810BDC046B0
:10509000D30D002013B50400FFF7ECFFA369002B2C
:1050A00002D0FFF7EFFF13BDA364E3642365134B46
:1050B000134A1B68A2620193A34201D10123A36199
:1050C000200000F01FF86060200000F01BF8A060D6
:1050D000200000F017F800220421E0606068FFF76C
:1050E00077FF01220921A068FFF772FF0222122137
:1050F000E068FFF76DFF0123A361D2E77C5905103B
:1051000019500410F8B50700FFF7A4FF1F4B1E68E5
:10511000B369002B02D13000FFF7BCFF4836B468FA
:105120007368013B04D53368002B22D03668F6E75C
:105130000C22A55E002D1AD12000154B5830E360DB
:10514000656600F047F8FFF78DFF20000822290070
:105150002560A560656025616561A5615C30FFF72C
:1051600037FC6563A563A564E5642000F8BD683479
:10517000D7E704213800FFF757FF041E3060D5D170
:10518000FFF770FF0C233B60EFE7C0467C5905102A
:105190000100FFFFF7B50400060000270191483425
:1051A0006368A5680093009B013B009304D52468C5
:1051B000002CF5D13800FEBDAB89012B08D90E2299
:1051C000AB5E013304D029003000019B98470743B0
:1051D0006835E8E7704770477047000070B50E000B
:1051E0001D000E23C95E140096B0002907DA0023C3
:1051F0002B60B3891B0611D48023DB000FE06A46C5
:1052000000F072FC0028F2DBF02301991B02194028
:10521000054BC9184B4259412960EDE74023002056
:10522000236016B070BDC04600E0FFFFF7B5022650
:105230008B8905000C00334206D0230047332360DE
:10524000236101236361F7BD6A4601ABFFF7C6FF27
:1052500000990700280000F081F8002808D10C22EE
:10526000A35E9A05EFD4032293431E43A681E4E78D
:105270000F4BAB628023A28920601343A381009B64
:1052800020616361019B002B0DD028000E23E15E9D
:1052900000F03CFC002806D00322A38993431A00A7
:1052A00001231343A381A0890743A781CBE7C0460D
:1052B0001950041010B5034B0100186800F04EF8A7
:1052C00010BDC046600F002070B50500002910D049
:1052D0000C1F2368002B00DAE418280000F048FCBB
:1052E0001D4A1368002B05D163601460280000F08C
:1052F00047FC70BDA34208D9216860188342F3D1EE
:1053000018685B6841182160EEE71A005B68002BA3
:1053100001D0A342F9D911685018A0420BD12068DE
:105320000918501811608342E0D118685B68411871
:1053300011605360DAE7A04202D90C232B60D5E755
:1053400021686018834203D118685B6841182160A6
:1053500063605460CAE7C046C00D0020F8B503235F
:10536000CD1C9D43083506000C2D1FD20C25A942EB
:105370001ED8300000F0FCFB25490A681400002C00
:105380001AD1244F3B68002B04D12100300000F0DB
:1053900027FB38602900300000F022FB431C2BD192
:1053A0000C233000336000F0EBFB03E0002DDEDA6D
:1053B0000C2333600020F8BD23685B1B19D40B2B32
:1053C00003D92360E418256003E06368A2420ED18C
:1053D0000B60300000F0D4FB200007220B30231DAF
:1053E0009043C21A9842E6D01B1AA350E3E75360D9
:1053F000EFE722006468C2E70323C41C9C43A04279
:10540000E1D0211A300000F0EBFA431CDBD1C7E7F2
:10541000C00D0020C40D0020936810B5013B9360BF
:10542000002B04DA9469A34207DB0A2905D013682C
:10543000581C10601970080010BDFFF72FFC010008
:10544000F9E7F8B506000F001400D518AC4201D1F9
:10545000002007E021783A003000FFF7DDFF01343B
:10546000431CF3D1F8BD0000F0B5A1B006000C005C
:105470001F000392002804D08369002B01D1FFF79D
:1054800009FE8E4B9C421CD17468636EDB0705D409
:10549000A3899B0502D4A06DFFF79DFEA3891B077E
:1054A00002D52369002B1DD121003000FFF74CFCF1
:1054B000002817D0636EDB070DD50120404221B0D4
:1054C000F0BD7F4B9C4201D1B468DEE77D4B9C422E
:1054D000DBD1F468D9E7A3899B05EED4A06DFFF773
:1054E0007BFEEAE7002308AD6B6120336B76103357
:1054F000AB760797039F3B78002B01D0252B4ED12D
:10550000039BFB1A0593039B9F420DD0059B210033
:105510003000039AFFF795FF431C00D1B5E06A699C
:10552000059B944663446B613B78002B00D1ACE053
:1055300001227B1C0393002352426A6004A9543267
:1055400052182B60EB60AB601370AB65039B0522B8
:1055500019785D4800F000FB039B5F1C002820D1F8
:105560002A68D30604D5532304A95B182021197097
:10557000130704D5532304A95B182B211970039B2F
:105580001B782A2B16D00021EB68039F3A78781CF1
:10559000303A8446092A4FD9002911D117E0013742
:1055A000A9E7494B2A68C01A0123834013432B60A3
:1055B0000397CBE7079B191D1B680791002B01DBA5
:1055C0000B9304E05B42EB60022313432B603B78B8
:1055D0002E2B0AD17B782A2B37D1079B02371A1D35
:1055E0001B680792002B2DDB09930322397837487B
:1055F00000F0B2FA002807D0344B2A68C01A4023C2
:105600008340134301372B6039787B1C06223048D6
:105610000393297600F0A0FA002845D02D4B002BEB
:1056200027D10722079B07339343083307936B69FE
:10563000049A9B186B615DE70A214B4367469B18F0
:105640000939A3E701235B42CEE700231A000137A3
:105650006B603978781C30398446092903D9002BCE
:10566000C3D00992C1E70A235A4367465218093B3F
:10567000EFE707AB0093220029003000164B00E053
:1056800000BF0490049B0133D1D1636EDB0705D4C6
:10569000A3899B0502D4A06DFFF79EFDA3895B063D
:1056A00000D50AE70D980AE707AB0093220029000E
:1056B0003000094B00F082F8E3E7C046A05905101E
:1056C000C059051080590510E0590510E65905101C
:1056D000EA5905100000000043540410F7B5150006
:1056E00001938A680B690C000090934200DA130062
:1056F00022002B6043321278002A01D001332B6044
:1057000023689B0602D52B6802332B602268062390
:1057100017001F401A4227D0230043331B785A1E1C
:1057200093412268920630D4220001990098089E85
:105730004332B047431C25D0062320682A68E1681D
:1057400000250340042B03D18D1AEB43DB171D40CA
:10575000A3682269934201DD9B1AED180027BD4220
:1057600020D1002010E00137E3682A689B1ABB4271
:10577000D2DD2200012301990098089E1932B0471A
:10578000431CF0D101204042FEBD3020E1184331DE
:10579000087021005A1C45310978A218433202339F
:1057A0001170C1E72200012301990098089E1A3266
:1057B000B047431CE6D00137D1E70000F0B58BB00D
:1057C00006920A0043320793059004920A7E0C0069
:1057D000109B782A06D8622A08D8002A00D1C0E097
:1057E000582A52D026004236327022E01000633828
:1057F0001528F7D8FAF71CFD16001F00F6FFF6FF74
:10580000F6FFF6FF1F00F6FFF6FFF6FFF6FFA80013
:1058100036009A00F6FFF6FFB900F6FF3600F6FFF5
:10582000F6FF9E0026001A684236111D19601368A3
:1058300033700123A7E0086819680A1D05060BD517
:105840000D681A60002D03DA2D23049A6D4213703F
:10585000614B0A27039332E00D681A604106F1D5C7
:105860002DB2EFE70D681968081D18602E0601D5E6
:105870000D6803E06D06FBD50D68ADB2564B0A27E7
:1058800003936F2A17D1082715E045310A70524A51
:1058900003921A68216820CA1A60080650D5CB07FF
:1058A00002D52023194321601027002D03D1202386
:1058B00022689A4322602300002243331A706368EF
:1058C000A360002B03DB0422216891432160002D9B
:1058D00002D1049E002B0CD0049E28003900FAF758
:1058E00037FD039B013E5B5C33702B0005009F423C
:1058F000F3D9082F09D12368DB0706D5636822692D
:10590000934202DC3023013E3370049B9B1B2361D6
:10591000079B210000930598069B09AAFFF7DEFE6E
:10592000431C35D1012040420BB0F0BD2022096854
:105930000A4322602200782145321170274AA7E7E6
:105940004806ACD5ADB2AAE71A680D68101D4969C2
:10595000186013682E0601D5196002E06D06FBD5AC
:1059600019800023049E2361D2E71A68111D196073
:10597000166800213000626800F0EEF8002801D0BF
:10598000801B6060636823610023049A1370BFE783
:105990002369320006990598079DA847431CC1D08A
:1059A00023689B0715D4099BE0689842BCDA18006D
:1059B000BAE72200012306990598079E1932B047DD
:1059C000431CAFD00135E368099A9B1AAB42F0DC67
:1059D000E9E70025F7E7C046F1590510025A05101E
:1059E000002370B5064D040008002B60FAF7F6FEA0
:1059F000431C03D12B68002B00D0236070BDC04630
:105A0000DC0D002070B50C000E25495F00F0C0F8D9
:105A1000002803DB636D1B18636570BDA389024A10
:105A20001340A381F9E7C046FFEFFFFFF8B51F0061
:105A30008B8905000C001600DB0505D50E23C95E19
:105A40000022022300F074F8A389054A28001340BD
:105A5000A38132000E23E15E3B0000F01FF8F8BD89
:105A6000FFEFFFFF70B50C000E25495F00F060F8F6
:105A7000A389421C03D1054A1340A38170BD802233
:105A800052011343A3816065F8E7C046FFEFFFFFB3
:105A900010B50E23C95E00F015F810BD70B50400F6
:105AA000080011001A000023054D2B60FAF7A6FD2F
:105AB000431C03D12B68002B00D0236070BDC0466F
:105AC000DC0D0020002370B5064D040008002B609B
:105AD000FAF788FD431C03D12B68002B00D023600C
